:100000000C9435000C9452000C9452000C94520045
:100010000C9452000C9452000C9452000C94520018
:100020000C9452000C9452000C9452000C94520008
:100030000C9452000C9454000C9452000C945200F6
:100040000C9452000C9452000C9452000C945200E8
:100050000C9452000C9452000C9452000C945200D8
:100060000C9452000C945200980211241FBECFEF42
:10007000D8E0DEBFCDBF21E0A0E0B1E001C01D921D
:10008000A330B207E1F710E0C5E3D0E004C0219748
:10009000FE010E944D04C433D107C9F70E942D010F
:1000A0000C9467040C9400001F920F920FB60F92ED
:1000B00011248F939F938CED9BE090938500809308
:1000C0008400B09A80910101909102010196909371
:1000D0000201809301019F918F910F900FBE0F90AD
:1000E0001F901895CF92DF92EF92FF92CF93DF93FC
:1000F00022E024BD8138910520F425BDC8E0D0E080
:100100000DC0813024E0920728F423E025BDC0E42F
:10011000D0E004C024E025BDC0E0D1E016BCBC01A5
:1001200080E090E00E943E036B017C01BE0180E014
:1001300090E00E943E0320E030E040E85DE30E9452
:10014000CC039B01AC01C701B6010E949D020E9435
:100150000F0367BDA89AA89BFECFDF91CF91FF90B8
:10016000EF90DF90CF9008955F982C9A85B1807FB3
:1001700085B9299A2C9888E290E00E9472002C9A06
:1001800085B1807F85B9299A2C982C9A85B1807F7A
:1001900085B92B9A2C9888E290E00E9472002C9AE4
:1001A00085B1807F85B985B185B92C982C9A85B1A8
:1001B000807F85B985B1866085B92C9888E290E00A
:1001C0000E9472002C9A85B1807F85B985B185B96E
:1001D0002C982C9A85B1807F85B985B18C6085B9C2
:1001E0002C9888E290E00E9472002C9A85B1807F62
:1001F00085B9289A2C982C9A85B1807F85B985B1CC
:10020000876085B92C9888E290E00E9472002C9A51
:1002100085B1807F85B985B185B92C982C9A85B137
:10022000807F85B9289A2C9888E696E00E94720013
:1002300008958FEF84B98AB91092800084E080938A
:1002400081008CED9BE09093850080938400B09AB0
:1002500081E080936F00789408950E94190180E0F6
:1002600091E00E94B400C0E0D0E00F2EF0E1AF2E8C
:10027000FEE0BF2EF02D0F2EF0EFCF2EF1EFDF2E90
:10028000F02D0F2EFCE38F2E912CF02D0F2EF8E584
:100290006F2EF2E07F2EF02D0F2EFAE04F2E512C14
:1002A000F02D80910101909102018C179D07C9F3F7
:1002B000C0910101D0910201009101011091020150
:1002C0002C9A85B1807F85B985B185B92C982C9AF7
:1002D00085B1807F85B9289A2C9888E696E00E949F
:1002E0007200C801B5010E9439047B015F9A2C9A03
:1002F00085B1807F85B985B1836085B92C982C9AAA
:1003000085B1807F85B985B185B92C9888E290E068
:100310000E9472005F9880E38E0D5F9A2C9A95B1CF
:10032000907F95B995B1282F22952F70922B95B972
:100330002C982C9A95B1907F95B995B1282F2F7054
:10034000922B95B92C98813029F088E290E00E9498
:10035000720004C088E696E00E9472005F985F9A7F
:100360002C9A85B1807F85B985B1836085B92C9839
:100370002C9A85B1807F85B985B18A6085B92C9822
:1003800088E290E00E9472005F98EC9CC001ED9CB6
:10039000900DFC9C900D1124080F191FC801B40189
:1003A0000E9439047B01C801B3010E943904362E32
:1003B00080E3860F5F9A2C9A95B1907F95B995B19D
:1003C000282F22952F70922B95B92C982C9A95B1A5
:1003D000907F95B995B1282F2F70922B95B92C98B5
:1003E000813029F088E290E00E94720004C088E623
:1003F00096E00E9472005F98330C832D880F880F5F
:10040000380E80E38E0D83195F9A2C9A95B1907FF8
:1004100095B995B1282F22952F70922B95B92C98CC
:100420002C9A95B1907F95B995B1282F2F70922B6A
:1004300095B92C98813029F088E290E00E947200F2
:1004400004C088E696E00E9472005F985F9A2C9A3A
:1004500085B1807F85B985B1836085B92C982C9A48
:1004600085B1807F85B985B18A6085B92C9888E28D
:1004700090E00E9472005F9844EC97014203C00133
:10048000439F900D1124080F191FC801B2010E944B
:100490003904F62E80E3860F5F9A2C9A95B1907FEF
:1004A00095B995B1282F22952F70922B95B92C983C
:1004B0002C9A95B1907F95B995B1282F2F70922BDA
:1004C00095B92C98813029F088E290E00E94720062
:1004D00004C088E696E00E9472005F98005DFF0C01
:1004E0008F2D880F880FF80E0F195F9A2C9A85B1FF
:1004F000807F85B985B1902F92959F70892B85B9A2
:100500002C982C9A85B1807F85B985B1902F9F70EA
:10051000892B85B92C98013029F088E290E00E945F
:10052000720004C088E696E00E9472005F98B9CE1F
:10053000109202011092010108950E94B1020C94E0
:1005400092030E948B0358F00E94840340F029F428
:100550005F3F29F00C947B0351110C94C6030C945B
:1005600081030E94A30368F39923B1F3552391F308
:10057000951B550BBB27AA2762177307840738F012
:100580009F5F5F4F220F331F441FAA1FA9F335D06F
:100590000E2E3AF0E0E832D091505040E695001C23
:1005A000CAF72BD0FE2F29D0660F771F881FBB1FDD
:1005B000261737074807AB07B0E809F0BB0B802DBB
:1005C000BF01FF2793585F4F3AF09E3F510578F0E7
:1005D0000C947B030C94C6035F3FE4F3983ED4F382
:1005E000869577956795B795F7959F5FC9F7880FBB
:1005F000911D9695879597F90895E1E0660F771F0D
:10060000881FBB1F621773078407BA0720F0621B9D
:10061000730B840BBA0BEE1F88F7E09508950E94C8
:10062000AB0388F09F5798F0B92F9927B751B0F0D6
:10063000E1F0660F771F881F991F1AF0BA95C9F766
:1006400014C0B13091F00E94C503B1E008950C943C
:10065000C503672F782F8827B85F39F0B93FCCF3EF
:10066000869577956795B395D9F73EF490958095E3
:10067000709561957F4F8F4F9F4F0895E89409C003
:1006800097FB3EF490958095709561957F4F8F4FC5
:100690009F4F9923A9F0F92F96E9BB279395F695DB
:1006A000879577956795B795F111F8CFFAF4BB0F59
:1006B00011F460FF1BC06F5F7F4F8F4F9F4F16C0BD
:1006C000882311F096E911C0772321F09EE8872F47
:1006D000762F05C0662371F096E8862F70E060E003
:1006E0002AF09A95660F771F881FDAF7880F96957C
:1006F000879597F9089597F99F6780E870E060E023
:1007000008959FEF80EC089500240A9416161706AA
:1007100018060906089500240A94121613061406F2
:1007200005060895092E0394000C11F4882352F055
:10073000BB0F40F4BF2B11F460FF04C06F5F7F4F0D
:100740008F4F9F4F089557FD9058440F551F59F0F4
:100750005F3F71F04795880F97FB991F61F09F3FAE
:1007600079F087950895121613061406551FF2CFD7
:100770004695F1DF08C0161617061806991FF1CF27
:1007800086957105610508940895E894BB2766274E
:100790007727CB0197F908950E94DF030C94920309
:1007A0000E94840338F00E948B0320F0952311F0FF
:1007B0000C947B030C94810311240C94C6030E94B7
:1007C000A30370F3959FC1F3950F50E0551F629FEF
:1007D000F001729FBB27F00DB11D639FAA27F00D9A
:1007E000B11DAA1F649F6627B00DA11D661F829FC1
:1007F0002227B00DA11D621F739FB00DA11D621FA6
:10080000839FA00D611D221F749F3327A00D611DC2
:10081000231F849F600D211D822F762F6A2F1124A4
:100820009F5750409AF0F1F088234AF0EE0FFF1FD7
:10083000BB1F661F771F881F91505040A9F79E3F2E
:10084000510580F00C947B030C94C6035F3FE4F3E6
:10085000983ED4F3869577956795B795F795E79584
:100860009F5FC1F7FE2B880F911D9695879597F98D
:10087000089597FB072E16F4009407D077FD09D052
:100880000E94530407FC05D03EF4909581959F4F3C
:100890000895709561957F4F0895EE0FFF1F0590A5
:1008A000F491E02D0994AA1BBB1B51E107C0AA1FBC
:1008B000BB1FA617B70710F0A61BB70B881F991F01
:1008C0005A95A9F780959095BC01CD010895F894AB
:0208D000FFCF58
:00000001FF
