S00F000050726F6A65746F2E7372656332
S11300000C9435000C945D000C945D000C945D0020
S11300100C945D000C945D000C945D000C945D00E8
S11300200C945D000C945D000C945D000C945F00D6
S11300300C945D000C945D000C945D000C945D00C8
S11300400C945D000C945D000C945D000C945D00B8
S11300500C945D000C945D000C945D000C945D00A8
S11300600C945D000C945D00F50011241FBECFEFCD
S1130070D8E0DEBFCDBF11E0A0E0B1E0E4E0F2E003
S113008002C005900D92AC30B107D9F721E0ACE085
S1130090B1E001C01D92AE30B207E1F710E0C5E354
S11300A0D0E004C02197FE010E94FA00C433D107B6
S11300B0C9F70E94EC000C9400010C9400001F92FC
S11300C00F920FB60F9211248F939F93B19A809140
S11300D00C0190910D01019690930D0180930C01F8
S11300E09F918F910F900FBE0F901F90189582E0F3
S11300F084BD85BD16BC80E587BDA89AA89BFECFAC
S1130100089582E084BD84E085BD16BC87E687BD82
S1130110A89AA89BFECF08952C9A95B1907F95B983
S113012095B1282F22952F70922B95B92C982C9A43
S113013095B1907F95B995B1282F2F70922B95B9D1
S11301402C98813019F00E94770008950E94810054
S113015008955F982C9A85B1807F85B9299A2C9847
S11301600E94770088E20E948C0086E00E948C0046
S11301708CE00E948C0087E10E948C0081E00E9448
S11301808C0008950F931F93CF93FC015F9A808195
S1130190882359F08F01C0E00E948C00CF5FF801E2
S11301A0EC0FF11D80818111F7CF5F98CF911F91E2
S11301B00F9108958FEF84B98AB984E08093800009
S11301C0809381001092890010928800B19A82E095
S11301D080936F00789408950E94DA000E94A90029
S11301E080E091E00E94C200FFCF10920D011092B6
S11301F00C010895EE0FFF1F0590F491E02D099472
S1070200F894FFCF9C
S10F02044F6C6120436172616C686F00F4
S9030000FC
